:1000000000000320D9040000390500003D05000070
:100010003505000035050000350500000000000032
:10002000000000000000000000000000410500008A
:1000300035050000000000004505000049050000EE
:10004000318A0000798A0000C18A0000098B000013
:10005000518B0000998B0000E18B0000298C00007F
:10006000718C0000B98C0000018D0000498D0000EA
:10007000918D0000D98D0000218E0000698E000056
:100080008D05000035050000350500003505000030
:100090003505000035050000350500003505000078
:1000A0009105000095050000990500009D050000E0
:1000B000A1050000A5050000A9050000AD05000090
:1000C000B1050000B5050000B905000035050000C8
:1000D0003505000035050000350500003505000038
:1000E0003505000035050000350500003505000028
:1000F0003505000035050000350500003505000018
:100100003505000035050000350500003505000007
:100110003505000025770000350500003505000095
:1001200035050000350500003505000035050000E7
:10013000816D000035050000350500003505000023
:1001400035050000BD05000035050000350500003F
:100150003505000035050000C1050000350500002B
:100160003505000035050000C50500003505000017
:100170003505000035050000350500003505000097
:1001800035050000C90500003505000035050000F3
:100190003505000035050000350500003505000077
:1001A000350500003505000035050000CD050000CF
:1001B0003505000035050000350500003505000057
:1001C0003505000035050000350500003505000047
:1001D000D10500003505000035050000350500009B
:1001E0003505000035050000350500003505000027
:1001F0003505000035050000350500003505000017
:100200003505000035050000350500003505000006
:1002100035050000350500003505000035050000F6
:1002200035050000350500003505000035050000E6
:1002300035050000350500003505000035050000D6
:1002400035050000350500003505000035050000C6
:1002500035050000350500003505000035050000B6
:1002600035050000350500003505000035050000A6
:100270003505000035050000350500003505000096
:100280003505000035050000350500003505000086
:100290003505000035050000350500003505000076
:1002A0003505000035050000350500003505000066
:1002B0003505000035050000350500003505000056
:1002C0003505000035050000350500003505000046
:1002D0003505000035050000350500003505000036
:1002E0003505000035050000350500003505000026
:1002F0003505000035050000350500003505000016
:100300003505000035050000350500003505000005
:1003100035050000350500003505000035050000F5
:1003200035050000350500003505000035050000E5
:1003300035050000350500003505000035050000D5
:1003400035050000350500003505000035050000C5
:1003500035050000350500003505000035050000B5
:1003600035050000350500003505000035050000A5
:100370003505000035050000350500003505000095
:100380003505000035050000350500003505000085
:100390003505000035050000350500003505000075
:1003A0003505000035050000350500003505000065
:1003B0003505000035050000350500003505000055
:10040000FFFFFFFFFFFFFFFFFFFFFFFFFE3DFFFFBF
:1004100010B5054C237833B9044B13B10448AFF33E
:1004200000800123237010BD0000002000000000A8
:10043000C0C6000008B5064B1BB106480649AFF31D
:1004400000800648036813B1054B03B1984708BD07
:1004500000000000C0C6000004000020CC03FF1F05
:1004600000000000154B002B08BF134B9D46A3F561
:10047000803A00218B460F461348144A121A0BF09B
:1004800019FA0F4B002B00D098470E4B002B00D0D1
:1004900098470020002104000D000D48002802D0DC
:1004A0000C48AFF300800BF0DFF92000290007F0C3
:1004B0008BF90BF0C5F900BF000008000000032015
:1004C00000000000000000000000002000380120B3
:1004D000000000000000000072B60D480D490160E8
:1004E0000D4880470D490E4A0E4B9A42BEBF51F847
:1004F000040B42F8040BF8E70B490C4A0020914228
:10050000BCBF41F8040BFAE762B609488047000017
:1005100008ED00E0000000005D5F0000E8C600009C
:100520000000FF1FD003FF1F000000200038012043
:1005300065040000FFF7FEBF264800472648004735
:1005400026480047264800472648004726480047D7
:1005500026480047264800472648004726480047C7
:1005600026480047264800472648004726480047B7
:1005700026480047264800472648004726480047A7
:100580002648004726480047264800472648004797
:100590002648004726480047264800472648004787
:1005A0002648004726480047264800472648004777
:1005B0002648004726480047264800472648004767
:1005C0002648004726480047264800472648004757
:1005D00026480047390500003D05000041050000A0
:1005E00045050000490500003505000035050000FF
:1005F0003505000035050000350500003505000013
:100600003505000035050000350500003505000002
:1006100035050000350500003505000035050000F2
:10062000350500003505000035050000019B000080
:100630001D9B000035050000350500003505000054
:1006400035050000EDA000000DA100002DA1000067
:100650004DA100006DA1000035050000799100005A
:10066000399B000035050000559B00003505000052
:1006700081F0004102E000BF83F0004330B54FEA53
:1006800041044FEA430594EA050F08BF90EA020FC0
:100690001FBF54EA000C55EA020C7FEA645C7FEA53
:1006A000655C00F0E2804FEA5454D4EB5555B8BF76
:1006B0006D420CDD2C4480EA020281EA030382EAE7
:1006C000000083EA010180EA020281EA0303362D79
:1006D00088BF30BD11F0004F4FEA01314FF4801C4C
:1006E0004CEA113102D0404261EB410113F0004F5E
:1006F0004FEA03334CEA133302D0524263EB430315
:1007000094EA050F00F0A780A4F10104D5F1200EB2
:100710000DDB02FA0EFC22FA05F2801841F100010D
:1007200003FA0EF2801843FA05F359410EE0A5F1E1
:1007300020050EF1200E012A03FA0EFC28BF4CF012
:10074000020C43FA05F3C01851EBE37101F00045C8
:1007500007D54FF0000EDCF1000C7EEB00006EEBD5
:100760000101B1F5801F1BD3B1F5001F0CD349085F
:100770005FEA30004FEA3C0C04F101044FEA4452B6
:1007800012F5800F80F09A80BCF1004F08BF5FEA3D
:10079000500C50F1000041EB045141EA050130BD1D
:1007A0005FEA4C0C404141EB010111F4801FA4F1C0
:1007B0000104E9D191F0000F04BF01460020B1FA15
:1007C00081F308BF2033A3F10B03B3F120020CDA4D
:1007D0000C3208DD02F1140CC2F10C0201FA0CF02B
:1007E00021FA02F10CE002F11402D8BFC2F1200C90
:1007F00001FA02F120FA0CFCDCBF41EA0C01904046
:10080000E41AA2BF01EB0451294330BD6FEA04048E
:100810001F3C1CDA0C340EDC04F11404C4F1200279
:1008200020FA04F001FA02F340EA030021FA04F38B
:1008300045EA030130BDC4F10C04C4F1200220FAE2
:1008400002F001FA04F340EA0300294630BD21FA20
:1008500004F0294630BD94F0000F83F4801306BFE6
:1008600081F480110134013D4EE77FEA645C18BFDA
:100870007FEA655C29D094EA050F08BF90EA020F71
:1008800005D054EA000C04BF1946104630BD91EA69
:10089000030F1EBF0021002030BD5FEA545C05D16C
:1008A0004000494128BF41F0004130BD14F58004AB
:1008B0003CBF01F5801130BD01F0004545F0FE411F
:1008C00041F470014FF0000030BD7FEA645C1ABF54
:1008D000194610467FEA655C1CBF0B46024650EA8B
:1008E000013406BF52EA033591EA030F41F40021B7
:1008F00030BD00BF90F0000F04BF0021704730B53D
:100900004FF4806404F132044FF000054FF0000111
:1009100050E700BF90F0000F04BF0021704730B5D2
:100920004FF4806404F1320410F0004548BF4042A7
:100930004FF000013EE700BF42004FEAE2014FEAFC
:1009400031014FEA02701FBF12F07F4393F07F4FD7
:1009500081F06051704792F0000F14BF93F07F4F09
:10096000704730B54FF4607401F0004521F000414C
:1009700020E700BF50EA010208BF704730B54FF0D2
:1009800000050AE050EA010208BF704730B511F0D7
:10099000004502D5404261EB41014FF4806404F10F
:1009A00032045FEA915C3FF4DCAE4FF003025FEA91
:1009B000DC0C18BF03325FEADC0C18BF033202EB19
:1009C000DC02C2F1200300FA03FC20FA02F001FA73
:1009D00003FE40EA0E0021FA02F11444C1E600BF12
:1009E00070B54FF0FF0C4CF4E06C1CEA11541DBFC5
:1009F0001CEA135594EA0C0F95EA0C0F00F0DEF890
:100A00002C4481EA030621EA4C5123EA4C5350EA74
:100A1000013518BF52EA033541F4801143F48013C5
:100A200038D0A0FB02CE4FF00005E1FB02E506F056
:100A30000042E0FB03E54FF00006E1FB03569CF0AB
:100A4000000F18BF4EF0010EA4F1FF04B6F5007FB1
:100A500064F5407404D25FEA4E0E6D4146EB060623
:100A600042EAC62141EA55514FEAC52040EA5E50AC
:100A70004FEACE2EB4F1FD0C88BFBCF5E06F1ED856
:100A8000BEF1004F08BF5FEA500E50F1000041EB8D
:100A9000045170BD06F0004646EA010140EA02003A
:100AA00081EA0301B4EB5C04C2BFD4EB0C0541EA5C
:100AB000045170BD41F480114FF0000E013C00F371
:100AC000AB8014F1360FDEBF002001F0004170BD95
:100AD000C4F10004203C35DA0C341BDC04F11404AE
:100AE000C4F1200500FA05F320FA04F001FA05F23A
:100AF00040EA020001F0004221F0004110EBD37007
:100B000021FA04F642EB06015EEA430E08BF20EA32
:100B1000D37070BDC4F10C04C4F1200500FA04F3D5
:100B200020FA05F001FA04F240EA020001F0004167
:100B300010EBD37041F100015EEA430E08BF20EADA
:100B4000D37070BDC4F1200500FA05F24EEA020E22
:100B500020FA04F301FA05F243EA020321FA04F051
:100B600001F0004121FA04F220EA020000EBD37008
:100B70005EEA430E08BF20EAD37070BD94F0000F08
:100B80000FD101F00046400041EB010111F4801F3C
:100B900008BF013CF7D041EA060195F0000F18BFED
:100BA000704703F00046520043EB030313F4801F29
:100BB00008BF013DF7D043EA0603704794EA0C0FE3
:100BC0000CEA135518BF95EA0C0F0CD050EA4106F9
:100BD00018BF52EA4306D1D181EA030101F0004176
:100BE0004FF0000070BD50EA410606BF104619469E
:100BF00052EA430619D094EA0C0F02D150EA0136AA
:100C000013D195EA0C0F05D152EA03361CBF1046EA
:100C100019460AD181EA030101F0004141F0FE4189
:100C200041F470014FF0000070BD41F0FE4141F40D
:100C3000780170BD70B54FF0FF0C4CF4E06C1CEA0D
:100C400011541DBF1CEA135594EA0C0F95EA0C0FC2
:100C500000F0A7F8A4EB050481EA030E52EA03357D
:100C60004FEA013100F088804FEA03334FF080559E
:100C700045EA131343EA12634FEA022245EA1115CB
:100C800045EA10654FEA00260EF000419D4208BF7C
:100C9000964244F1FD0404F5407402D25B084FEA29
:100CA0003202B61A65EB03055B084FEA32024FF4D5
:100CB00080104FF4002CB6EB020E75EB030E22BF32
:100CC000B61A754640EA0C005B084FEA3202B6EBF2
:100CD000020E75EB030E22BFB61A754640EA5C00A1
:100CE0005B084FEA3202B6EB020E75EB030E22BF31
:100CF000B61A754640EA9C005B084FEA3202B6EB32
:100D0000020E75EB030E22BFB61A754640EADC00F0
:100D100055EA060E18D04FEA051545EA16754FEA52
:100D200006164FEAC30343EA52734FEAC2025FEA70
:100D30001C1CC0D111F4801F0BD141EA00014FF0FF
:100D400000004FF0004CB6E711F4801F04BF0143D0
:100D50000020B4F1FD0C88BFBCF5E06F3FF6AFAEEC
:100D6000B5EB030C04BFB6EB020C5FEA500C50F17C
:100D7000000041EB045170BD0EF0004E4EEA1131FF
:100D800014EB5C04C2BFD4EB0C0541EA045170BD06
:100D900041F480114FF0000E013C90E645EA060E4A
:100DA0008DE60CEA135594EA0C0F08BF95EA0C0F78
:100DB0003FF43BAF94EA0C0F0AD150EA01347FF4C0
:100DC00034AF95EA0C0F7FF425AF104619462CE797
:100DD00095EA0C0F06D152EA03353FF4FDAE1046FA
:100DE000194622E750EA410618BF52EA43067FF44B
:100DF000C5AE50EA41047FF40DAF52EA43057FF4DB
:100E0000EBAE12E74FF0FF3C06E000BF4FF0010CE5
:100E100002E000BF4FF0010C4DF804CD4FEA410C49
:100E20007FEA6C5C4FEA430C18BF7FEA6C5C1BD016
:100E300001B050EA410C0CBF52EA430C91EA030F97
:100E400002BF90EA020F0020704710F1000F91EAF4
:100E5000030F58BF994208BF90422CBFD8176FEAC2
:100E6000E37040F0010070474FEA410C7FEA6C5C90
:100E700002D150EA013C07D14FEA430C7FEA6C5C97
:100E8000D6D152EA033CD3D05DF8040B704700BFC3
:100E90008446104662468C461946634600E000BF11
:100EA00001B5FFF7B7FF002848BF10F1000F01BDE3
:100EB0004DF808EDFFF7F4FF0CBF012000205DF8AE
:100EC00008FB00BF4DF808EDFFF7EAFF34BF012033
:100ED00000205DF808FB00BF4DF808EDFFF7E0FFCC
:100EE00094BF012000205DF808FB00BF4DF808ED1D
:100EF000FFF7CEFF94BF012000205DF808FB00BF84
:100F00004DF808EDFFF7C4FF34BF012000205DF865
:100F100008FB00BF4FEA410212F5001215D211D5AD
:100F20006FF47873B3EB625212D94FEAC12343F0E6
:100F3000004343EA505311F0004F23FA02F018BF68
:100F4000404270474FF00000704750EA013005D131
:100F500011F0004008BF6FF0004070474FF00000F4
:100F6000704700BF4A0011D212F5001211D20DD500
:100F70006FF47873B3EB62520ED44FEAC12343F09F
:100F8000004343EA505323FA02F070474FF0000049
:100F9000704750EA013002D14FF0FF3070474FF0F8
:100FA0000000704773B96AB9002908BF0028BCBFA8
:100FB00000204FF00041C4BF6FF000414FF0FF3000
:100FC00000F08CB882B0EC462DE9005000F056F8E5
:100FD000DDF804E002B00CBC704700BF4BB942B969
:100FE000002908BF002802D04FF0FF31084600F06A
:100FF00075B882B0EC462DE9005000F057F8DDF8E6
:1010000004E002B00CBC704738B50022002304464F
:101010000D46FFF757FF28B920462946BDE838405E
:1010200000F00AB8204605F1004100F005F8404202
:1010300061EB410138BD00BF70B500220D4B044685
:101040000D46FFF7CDFCFFF78DFF0646FFF752FC7C
:101050000022094BFFF7C4FC02460B4620462946F6
:10106000FFF70AFBFFF77EFF002242EA000420465A
:10107000314670BD0000F03D0000F0412DE97043A5
:10108000069E14461D468046894600F029F804FB5A
:1010900001F300FB0533A4FB00451D44B8EB040439
:1010A00069EB0505C6E90045BDE870832DE970438D
:1010B000069E1446804689461D4600F05DF900FBF9
:1010C00005F504FB0153A0FB04451D44B8EB0404E3
:1010D00069EB0505C6E90045BDE87083704700BFB0
:1010E00000292DE9F00FC0F29F800024002BC0F2F0
:1010F0009680154606460F46002B3ED18A4257D9A8
:10110000B2FA82F34BB1C3F1200201FA03F720FADD
:1011100002F29D40174300FA03F6290CB7FBF1F2E7
:10112000330C01FB127CA8B243EA0C4700FB02F32C
:10113000BB4209D97F1902F1FF3C80F00181BB421B
:1011400040F2FE80023A2F44FF1AB7FBF1F3B6B229
:1011500001FB137146EA014100FB03F0884208D904
:10116000491903F1FF3780F0ED80884240F2EA80B0
:10117000023B43EA0242002303E08B420AD90023E8
:101180001A461046194614B1404261EB4101BDE8D0
:10119000F00F7047B3FA83F8B8F1000F40F0848085
:1011A0008B4202D3824200F2DE8000230122E8E774
:1011B00012B90123B3FBF2F5B5FA85F2002A39D151
:1011C0007F1B280C1FFA85FC0123B7FBF0F1320CC2
:1011D00000FB117742EA07470CFB01F2BA4207D93C
:1011E0007F1901F1FF3802D2BA4200F2C1804146B4
:1011F000BF1AB7FBF0F2B6B200FB127046EA00402D
:101200000CFB02FC844507D9401902F1FF3702D2DA
:10121000844500F2AB803A4642EA0142B1E7E4433A
:10122000524263EB430364E7404261EB41014FF0FC
:10123000FF345BE79540C2F1200327FA03F1280C45
:1012400026FA03F39740B1FBF0F81F433B0C00FB79
:1012500018111FFA85FC43EA01410CFB08F38B428D
:1012600006FA02F608D9491908F1FF3279D28B4201
:1012700077D9A8F102082944C91AB1FBF0F3BFB22B
:1012800000FB131147EA01470CFB03F2BA4207D9EE
:101290007F1903F1FF3160D2BA425ED9023B2F447D
:1012A000BF1A43EA084390E7C8F1200203FA08FC9A
:1012B00025FA02F343EA0C0C4FEA1C4921FA02F327
:1012C00001FA08F720FA02F2B3FBF9F1174309FB20
:1012D00011333A0C1FFA8CFB42EA03430BFB01FA71
:1012E0009A4505FA08F008D913EB0C0301F1FF3217
:1012F00035D29A4533D902396344CAEB0303B3FBB1
:10130000F9F209FB1233BFB247EA03470BFB02F9BC
:10131000B94508D917EB0C0702F1FF331BD2B945C9
:1013200019D9023A674442EA0145A5FB0001C9EB1D
:1013300007078F424FF000030AD305D02A4620E763
:10134000624601E73B4614E706FA08F68642F5D204
:101350006A1E002315E71A46E5E70B46A0E711468B
:10136000CBE7904688E7434642460AE7023A53E70E
:1013700002392F443CE700BF2DE9F00F1446054623
:101380000E46002B43D18A4253D9B2FA82F757B1A5
:10139000C7F1200620FA06F601FA07F302FA07F46D
:1013A0001E4300FA07F5210CB6FBF1F22B0C01FBF2
:1013B0001267A0B243EA074600FB02F3B34209D921
:1013C000361902F1FF3780F0F680B34240F2F38025
:1013D000023A2644F61AB6FBF1F3ADB201FB1361F3
:1013E00045EA014100FB03F0884208D9091903F1DD
:1013F000FF3680F0E280884240F2DF80023B43EA21
:101400000242002310461946BDE8F00F70478B4298
:101410004AD8B3FA83F6002E4DD18B4202D38242D2
:1014200000F2D6800023012210461946BDE8F00FD5
:10143000704712B90124B4FBF2F4B4FA84F2002A22
:101440007CD1091B260CA7B20123B1FBF6F02A0CB4
:1014500006FB101142EA014107FB00F28A4207D95C
:10146000091900F1FF3C02D28A4200F2C3806046B3
:10147000891AB1FBF6F2ADB206FB121145EA01453D
:1014800007FB02F7AF4208D92C1902F1FF3180F0B7
:101490009680A74240F29380023A42EA0042104608
:1014A0001946BDE8F00F704700231A46104619464A
:1014B000BDE8F00F7047C6F1200522FA05F4B340ED
:1014C0001C434FEA144821FA05F301FA06F720FA03
:1014D00005F5B3FBF8FC2F4308FB1C333D0C1FFA4A
:1014E00084FA45EA03430AFB0CF9994502FA06FB24
:1014F00004D91B190CF1FF326DD39446C9EB0303D9
:10150000B3FBF8F508FB1533BFB247EA03470AFB04
:1015100005F8B84504D93F1905F1FF3361D31D46DD
:1015200045EA0C4CACFB0B23C8EB07079F424FF07E
:10153000000549D345D062462B4663E79440C2F18B
:10154000200321FA03FC260C20FA03F301FA02F52A
:10155000BCFBF6F843EA05010B0C06FB18CCA7B25E
:1015600043EA0C4C07FB08F3634500FA02F509D97E
:101570001CEB040C08F1FF323AD2634538D9A8F1CC
:101580000208A444C3EB0C0CBCFBF6F389B206FBC7
:1015900013CC41EA0C4107FB03F28A4207D909192F
:1015A00003F1FF3022D28A4220D9023B2144891A1A
:1015B00043EA084349E73A460CE733461FE70A4641
:1015C0006BE7B0409042B6D20CF1FF32002319E72E
:1015D0003346324616E799458FD9ACF1020C2344C5
:1015E0008CE7B8459BD9023D274499E70346DEE7DF
:1015F0009046C7E7023821443AE700BF80B483B081
:1016000000AF78600B46FB70FB78002B06D07B6840
:101610009B6843F400227B689A6005E07B689B68C6
:1016200023F400227B689A600C37BD465DF8047B8A
:10163000704700BF80B483B000AF78600B46FB708A
:10164000FB78002B06D07B689B6843F480227B6884
:101650009A6005E07B689B6823F480227B689A602F
:101660000C37BD465DF8047B704700BF80B588B07D
:1016700000AFF860B9603B601346FB711C4B1B78F0
:10168000002B01D001232EE0194BFA791A70FB7957
:10169000022B27D1FA68164B5A6007F1140318463B
:1016A00008F020FCBB687B61114B5A6807F11403FA
:1016B000104619463A6808F0A1FA0D4B5B681846C7
:1016C0000121FFF79BFF0A4B5B6818460121FFF7DA
:1016D000B1FF074B074A9A60054B074ADA6000BF23
:1016E000002300E0042318462037BD4680BD00BF1C
:1016F0001C00002001A0000041A000000FB480B534
:1017000082B000AF0B4B1B78002B02D14FF0FF33A0
:1017100009E007F114033B60074839693A6800F0B3
:1017200093FA78607B6818460837BD46BDE880406C
:1017300004B070471C0000203D17000080B582B047
:1017400000AF78600A4B1B78002B02D14FF0FF33BB
:1017500009E0074B9B68064A51683A1D0846114646
:1017600001229847012318460837BD4680BD00BFB7
:101770001C00002080B586B000AFB9607A603B6085
:101780000346FB73BB687B610CE097F90F203B6A53
:10179000104698473B681B685A1C3B681A607B6977
:1017A00001337B617A697B689A42EEDB1837BD466C
:1017B00080BD00BF80B592B000AFF860B9607A60BC
:1017C0003B6000237B62FB683B623B6A5A1C3A62C7
:1017D00000221A707B68002B65D0BB68D3E9002318
:1017E000C7E91023D7E9102352EA030107D13B6A66
:1017F00030221A707B6A01337B627B6AC1E04CE065
:101800003B681A464FEAE273D7E91001FFF7CAFBBB
:1018100002460B46C7E906233B681A464FEAE273C5
:10182000B96903FB01F0F96902FB01F10144B869F0
:10183000A0FB022319440B46D7E91001821A61EB81
:101840000303C7E90E23D7E90E23002A73F1000131
:101850000FDAD7E90E23C7E90A23D7E90A234FF0A5
:1018600030004FF00001821A61EB0303C7E90E2339
:1018700006E0D7E90E23303243F10003C7E90E2317
:10188000D7E90623C7E910233B6A5A1C3A6297F846
:1018900038201A707B6A01337B62D7E9102352EA41
:1018A0000301ADD16CE0BB68D3E90023C7E90C2389
:1018B000D7E90C2352EA030107D13B6A30221A70A0
:1018C0007B6A01337B627B6A5BE054E03B681A46CB
:1018D0004FEAE273D7E90C01FFF780FB02460B46A3
:1018E000C7E904233B681A464FEAE273396903FBF0
:1018F00001F0796902FB01F101443869A0FB022380
:1019000019440B46D7E90C01821A61EB0303C7E9BE
:101910000A23D7E90A23002B08BF0A2A07D2D7E9EE
:101920000A23303243F10003C7E90A2316E097F88F
:101930005030002B04D04FF041024FF0000303E081
:101940004FF061024FF00003D7E90A01121843EB90
:1019500001030A3A43F1FF33C7E90A23D7E9042315
:10196000C7E90C233B6A5A1C3A6297F828201A7080
:101970007B6A01337B62D7E90C2352EA0301A5D1CC
:101980007B6A18464837BD4680BD00BF0000000096
:10199000B0B598B000AFF860B9607A603B600023E2
:1019A000FB63FB68BB63BB6B5A1CBA6300221A70F3
:1019B000BB68D3E90023C7E90C23D7E90C014FF03A
:1019C00000024FF00003FFF773FA0346002B07D025
:1019D000BB6B30221A70FB6B0133FB63FB6B23E1A3
:1019E00007F1100397ED0C0B184608F077FD87ED13
:1019F000100B00237B650FE07868FEF78BFF024633
:101A00000B46D7E91001FEF7EBFF02460B46C7E98C
:101A100010237B6D01337B657A6D3B689A42EBD373
:101A2000D7E90C014FF000024FF00003FFF75EFA18
:101A30000346002B2FD0D7E910014FF00002804B56
:101A4000FEF71CFE02460B46C7E912233868FEF774
:101A500051FF02460B469FED760B43EC112B08F02D
:101A60008FFD53EC102B10461946D7E91223FFF7D0
:101A700033FA0346002B00D13BE0D7E9042310469C
:101A800019464FF000026F4BFEF7F8FD02460B4679
:101A9000C7E904232DE0D7E910014FF00002684B9D
:101AA000FEF7EAFD02460B46C7E912233868FEF747
:101AB00021FF02460B469FED600B43EC112B08F013
:101AC0005FFD53EC102B10461946D7E91223FFF7A0
:101AD0000DFA0346002B0CD0D7E904231046194613
:101AE0004FF00002574BFEF7C7FD02460B46C7E911
:101AF000042300237B654EE07868FEF70BFF024667
:101B00000B46D7E91201FFF795F802460B46C7E9E5
:101B10000A23D7E90A01FFF777FA7B681A464FEAEA
:101B2000E27302FB01F500FB03F42C44A0FB02234B
:101B3000E1180B4610461946FEF724FF02460B46F5
:101B4000D7E91201FEF798FD02460B46C7E90823C4
:101B5000D7E90801FFF7DEF90346BB65BB6D002B33
:101B600006DABB6DFB61FB69C3F13003BB6502E0C4
:101B7000BB6D3033BB65D7E90A23C7E91223BB6BC2
:101B80005A1CBA63BA6DD2B21A70FB6B0133FB6395
:101B90007B6D01337B657A6D3B689A42ACD3BB6B3E
:101BA0005A1CBA632E221A70FB6B0133FB63D7E910
:101BB000042310461946FFF7ADF90346FB65FB6D9C
:101BC000002B08D1BB6B5A1CBA6330221A70FB6B16
:101BD0000133FB6327E023E0FA6D7B6892FBF3F3AC
:101BE000BB61BB697A6802FB03F3FA6DD31ABB656C
:101BF000BB6D002B06DABB6DFB61FB69C3F13003E3
:101C0000BB6502E0BB6D3033BB65BB69FB65BB6B7D
:101C10005A1CBA63BA6DD2B21A70FB6B0133FB6304
:101C2000FB6D002BD8D1FB6B18466037BD46B0BDAD
:101C3000000000000000244000000000000024C05C
:101C40000000E03F0000F03F80B5A4B002AFF860B4
:101C5000B9607A600023C7F880300023FB67002357
:101C6000FB62002387F86A304FF000024FF0000358
:101C7000C7E90623BB68C7F8843000F027BCBB6DFA
:101C8000252B07D0FB68B86D9847FB6A0133FB62D0
:101C900000F017BC012387F86B3000237B6600231C
:101CA000BB6752E0D7F884300133C7F88430D7F8E7
:101CB00084301B785BB2203B102B3ED801A151F839
:101CC00023F000BF1D1D00003B1D00003B1D000058
:101CD000311D00003B1D00003B1D00003B1D0000AE
:101CE0003B1D00003B1D00003B1D00003B1D000094
:101CF000131D00003B1D0000091D00003B1D0000DE
:101D00003B1D0000271D00007B6E43F001037B6636
:101D10001BE07B6E43F002037B6616E07B6E43F0B4
:101D200004037B6611E07B6E43F008037B660CE0E6
:101D30007B6E43F010037B6607E0D7F88430013BED
:101D4000C7F884300123BB6700BFBB6F002BA9D04D
:101D500000237B670023BB6721E0D7F88430013381
:101D6000C7F88430D7F884301B785BB2BB65BB6D95
:101D70002F2B0DDDBB6D392B0ADC7A6F13469B00D0
:101D800013445B001A46BB6D1344303B7B6706E08F
:101D9000D7F88430013BC7F884300123BB67BB6FA1
:101DA000002BDAD006233B67D7F884300133C7F81D
:101DB0008430D7F884301B785BB22E2B2AD10023D5
:101DC0003B670023BB6721E0D7F884300133C7F8B5
:101DD0008430D7F884301B785BB2BB65BB6D2F2B8A
:101DE0000DDDBB6D392B0ADC3A6F13469B001344A3
:101DF0005B001A46BB6D1344303B3B6706E0D7F8E7
:101E00008430013BC7F884300123BB67BB6F002BD4
:101E1000DAD004E0D7F88430013BC7F88430D7F833
:101E200084300133C7F88430D7F884301B785BB234
:101E3000682B02D06C2B1AD033E0D7F884300133F2
:101E4000C7F88430D7F884301B785BB2682B09D090
:101E50007B6E43F040037B66D7F88430013BC7F8C4
:101E6000843024E07B6E43F020037B661FE0D7F8CC
:101E700084300133C7F88430D7F884301B785BB2E4
:101E80006C2B09D07B6E43F080037B66D7F88430DF
:101E9000013BC7F884300AE07B6E43F480737B66B5
:101EA00005E0D7F88430013BC7F8843000BFD7F88D
:101EB00084300133C7F88430D7F884301B785BB2A4
:101EC000BB65BB6D642B1BD0BB6D692B18D0BB6D84
:101ED000662B15D0BB6D462B12D0BB6D782B0FD067
:101EE000BB6D582B0CD0BB6D6F2B09D0BB6D622B1B
:101EF00006D0BB6D702B03D0BB6D752B40F08C8270
:101F0000BB6D642B03D0BB6D692B40F095807B6E5D
:101F100003F48073002B0BD07B68073323F0070397
:101F200003F108027A60D3E90023C7E9082308E037
:101F30007B681A1D7A601B681A464FEAE273C7E98C
:101F4000082307F1300207F1200397F86B10009186
:101F50001046194601220A23FFF72CFCF86707F107
:101F60003002FB6F1344C7F88030D7E90823002AFA
:101F700073F1000105DA2D233B66FB6F0133FB672C
:101F800017E07B6E03F00203002B05D02B233B668A
:101F9000FB6F0133FB670CE07B6E03F00403002B47
:101FA00005D020233B66FB6F0133FB6701E0002374
:101FB0003B660023FB657B6E03F00803002B16D005
:101FC0003B6E002B05D0FB68386E9847FB6A0133E7
:101FD000FB620123FB657A6F07F12C03F96800911E
:101FE0003020F96FFFF7C6FB7B6FFB6718E07B6E55
:101FF00003F00103002B13D17A6F07F12C03F9686A
:1020000000912020F96FFFF7B5FB3B6E002B05D048
:10201000FB68386E9847FB6A0133FB620123FB655E
:10202000FB6D002B08D13B6E002B05D0FB68386E92
:102030009847FB6A0133FB62BB6D662B03D0BB6D17
:10204000462B40F08A807B68073323F0070303F1B7
:1020500008027A60D3E90023C7E9042307F13002BC
:1020600007F11003104619460A223B6FFFF790FC58
:10207000F86707F13002FB6F1344C7F88030D7E9E7
:102080000423104619464FF000024FF00003FEF7FC
:1020900019FF0346002B05D02D233B66FB6F013350
:1020A000FB6717E07B6E03F00203002B05D02B23A8
:1020B0003B66FB6F0133FB670CE07B6E03F00403B0
:1020C000002B05D020233B66FB6F0133FB6701E04B
:1020D00000233B660023FB657B6E03F00803002BA7
:1020E00016D03B6E002B05D0FB68386E9847FB6A14
:1020F0000133FB620123FB657A6F07F12C03F9685A
:1021000000913020F96FFFF735FB7B6FFB6718E01C
:102110007B6E03F00103002B13D17A6F07F12C03C0
:10212000F96800912020F96FFFF724FB3B6E002B2C
:1021300005D0FB68386E9847FB6A0133FB620123C8
:10214000FB65FB6D002B08D13B6E002B05D0FB68B7
:10215000386E9847FB6A0133FB62BB6D582B03D086
:10216000BB6D782B40F0A680BB6D782B02D100238D
:1021700087F86B307B6E03F48073002B0BD07B6889
:10218000073323F0070303F108027A60D3E9002341
:10219000C7E9062308E07B681A1D7A601B681A46A7
:1021A0004FF00003C7E9062307F1300207F11803D7
:1021B00097F86B1000911046194600221023FFF784
:1021C000F9FAF86707F13002FB6F1344C7F8803063
:1021D0000023FB657B6E03F00803002B22D07B6E8F
:1021E00003F01003002B11D0FB683020984797F8BC
:1021F0006B30002B01D0582300E07823FA68184692
:102200009047FB6A0233FB620123FB657A6F07F19B
:102210002C03F96800913020F96FFFF7ABFA7B6F60
:10222000FB672CE07B6E03F00103002B27D17B6E54
:1022300003F01003002B02D0FB6F0233FB677A6FB1
:1022400007F12C03F96800912020F96FFFF792FA4B
:102250007B6E03F01003002B11D0FB6830209847F1
:1022600097F86B30002B01D0582300E07823FA68F0
:1022700018469047FB6A0233FB620123FB657B6EC5
:1022800003F01003002B15D0FB6D002B12D1FB685F
:102290003020984797F86B30002B01D0582300E08E
:1022A0007823FA6818469047FB6A0233FB62FB6F9B
:1022B0000233FB67BB6D6F2B0BD17B681A1D7A60F5
:1022C0001B681A464FF00003C7E90623082387F866
:1022D0006A30BB6D622B11D17B681A1D7A601B6856
:1022E0001A464FF00003C7E90623022387F86A3035
:1022F00007F13002FB6F1344C7F88030BB6D702BC1
:1023000011D17B681A1D7A601B681A464FF00003D2
:10231000C7E90623102387F86A3007F13002FB6F04
:102320001344C7F88030BB6D752B11D17B681A1D23
:102330007A601B681A464FF00003C7E906230A2398
:1023400087F86A3007F13002FB6F1344C7F880301A
:10235000BB6D6F2B08D0BB6D622B05D0BB6D702B96
:1023600002D0BB6D752B34D197F86A3007F130017C
:1023700007F1180297F86B000090084611460022FA
:10238000FFF718FAF86707F13002FB6F1344C7F83C
:1023900080307B6E03F00803002B0BD07A6F07F1BF
:1023A0002C03F96800913020F96FFFF7E3F97B6F98
:1023B000FB670EE07B6E03F00103002B09D17A6FFF
:1023C00007F12C03F96800912020F96FFFF7D2F98B
:1023D0000DE00CE0D7F880305A1EC7F880201B783B
:1023E0005AB2FB6810469847FB6A0133FB62D7F884
:1023F00080301B78002BEDD17B6E03F00103002BA6
:1024000009D07A6F07F12C03F96800912020F96F49
:10241000FFF7B0F955E054E0BB6D632B0DD17B683D
:102420001A1D7A601B68DBB25BB27B65FB68786D56
:102430009847FB6A0133FB6243E0BB6D732B3AD1D3
:102440007B681A1D7A601B68FB66FB6E002B38D018
:10245000F86E09F037FA0346FB677B6E03F0010361
:10246000002B09D17A6F07F12C03F9680091202025
:10247000F96FFFF77FF90BE00AE0FB6E5A1CFA6672
:102480001B785AB2FB6810469847FB6A0133FB621F
:10249000FB6E1B78002BF0D17B6E03F00103002B49
:1024A0000FD07A6F07F12C03F96800912020F96FA3
:1024B000FFF760F905E0FB68B86D9847FB6A0133E8
:1024C000FB62D7F884300133C7F88430D7F8843002
:1024D0001B785BB2BB65BB6D002B7FF4D0ABFB6A96
:1024E00018468837BD4680BD80B586B000AFF8601D
:1024F0007B600B46FB721346BB72FB7A5A00BB7AB9
:1025000013437B6105F07CF9FA687B691B01134476
:1025100003F12802537943F040035371FB685B6871
:1025200023F4FF7323F00103FA7A02F00F02520141
:102530001A43BB7A03F001031B011A43F9687B6954
:102540001B010B4428335B79C3F30013DBB2DB00C0
:10255000134304337A681A60FB685B6823F4FF73E3
:1025600023F00103FA7A02F00F0252011A43BB7AF8
:1025700003F001031B011A43F9687B691B010B443B
:1025800028335B79C3F30013DBB2DB0013433A6AF1
:10259000C2F309021104F8687A6912010244283270
:1025A0005279C2F3C002D2B292010A4342F08802C9
:1025B0001A6005F039F9FB689B68FA68926892F82E
:1025C0009420D2B222F02002D2B283F894200023C9
:1025D00018461837BD4680BD80B584B002AF78601C
:1025E0007B6893F82D30C3F30013DBB2DB000833B4
:1025F0007A6813441A1D7B681A627B6800229A620B
:102600007B6808225A627A6892F82D3043F02003E2
:1026100082F82D307A6892F82D306FF3C30382F878
:102620002D307B681B6A0822009278680021002206
:10263000FFF75AFF0837BD4680BD00BF80B485B0A4
:1026400000AF78607B689B68FF2283F888207B68F6
:102650009B687A68926892F89420D2B242F00202A3
:10266000D2B283F894207B689B68002283F898207C
:102670000023FB7355E07B685B6823F4FF7323F052
:102680000103FA7B02F00F025201134300221A6089
:102690007B685B6823F4FF7323F00103FA7B02F08D
:1026A0000F025201134343F0080300221A607B68B3
:1026B0005B6823F4FF7323F00103FA7B02F00F023F
:1026C0005201134343F0100300221A607B685B68D9
:1026D00023F4FF7323F00103FA7B02F00F0252018F
:1026E000134343F0180300221A60FB7B5B007A68F7
:1026F0001B011344283300225A60FB7B5B0043F02C
:1027000001037A681B011344283300225A607B6856
:102710009B68FA7B3032002103F82210FB7B0133E7
:10272000FB73FB7B032BA6D97B68002283F8A020D8
:102730007B689B687A68926892F89420D2B222F003
:102740000202D2B283F894207B689B68FF2283F850
:102750008C208923BB737B689B68BA7B83F88420B9
:102760007B68002283F8A1207B689B687A68926866
:1027700092F89420D2B222F02002D2B283F89420B0
:102780001437BD465DF8047B704700BF80B584B048
:1027900000AF786039603B681B88FB813B689B78A1
:1027A00003F00F037B733B689B78DB093B737B7BF8
:1027B0005B00DAB23B7B1343FB723B68DB78012B97
:1027C00007D1FB89B3F5806F18D340F2FF33FB814B
:1027D00014E0FB89402B01D94023FB817B689B6877
:1027E0007A7B79688968787B303011F82010C9B21B
:1027F00041F00101C9B2303203F82210FB7A7A6845
:102800001B01134403F1280253796FF386135371AC
:10281000FB7AFA89C2F3090291B27A681B01134468
:1028200003F12802938861F309039380FB7A7A68A5
:102830001B01134403F1280253796FF3C30353714F
:10284000FB7A7A681B01134403F1280253796FF372
:10285000820353717B689A68787B7B689B68797B7D
:10286000303113F82130D9B23B7B012B01D1042345
:1028700000E008230B43D9B200F1300302F8231023
:102880007B7B002B05D13B7B002B02D17868FFF7C7
:10289000A3FE002318461037BD4680BD80B584B026
:1028A00000AF78600B46FB70FB7803F00F03FB73FF
:1028B000FB78DB09BB73FB7B5B00DAB2BB7B1343AA
:1028C0007B73FB787868194600F0AAFD7B689B68EB
:1028D000FA7B3032002103F822107B7B7A681B01DF
:1028E000134403F1280293886FF3090393800023B4
:1028F00018461037BD4680BD80B584B000AF786003
:102900000B46FB70FB7803F00F03FB73FB78DB09CE
:10291000BB73FB7B5B00DAB2BB7B13437B73FB783F
:102920007868194600F07CFD7B7B7A681B011344B4
:1029300003F12802537943F0040353717B685B6809
:1029400023F4FF7323F00103FA7B02F00F0252011C
:102950001A43BB7B03F001031B011A437B7B79689D
:102960001B010B4428335B79C3F30013DBB2DB009C
:1029700013437A7B796812010A4428329288C2F3A1
:10298000090292B2120442F08C021A607B689B68C2
:102990007A68926892F89420D2B222F02002D2B2E1
:1029A00083F89420002318461037BD4680BD00BF31
:1029B00080B584B000AF78600B46FB70FB7803F005
:1029C0000F03BB73FB78DB097B73BB7B5B00DAB265
:1029D0007B7B13433B733B7B7A681B01134403F1FE
:1029E000280253796FF3820353713B7B7A681B0192
:1029F000134403F1280253796FF3C3035371002387
:102A0000FB7340E07B685B6823F4FF7323F00103F2
:102A1000BA7B02F00F0252011A437B7B03F00103E1
:102A20001B011A43FB7B03F00103DB0013431B680C
:102A3000BB60BB6803F00403002B21D07B685B689C
:102A400023F4FF7323F00103BA7B02F00F0252015B
:102A50001A437B7B03F001031B011A43FB7B03F04A
:102A60000103DB0013433A7B796812010A442832E0
:102A70009288C2F3090292B2120442F008021A606C
:102A8000FB7B0133FB73FB7B012BBBD97B689B6812
:102A9000BA7B79688968B87B303011F82010C9B2E8
:102AA00021F00201C9B2303203F82210BB7B002BA7
:102AB00005D17B7B002B02D17868FFF78DFD7B6809
:102AC0009B687A68926892F89420D2B222F0200231
:102AD000D2B283F89420002318461037BD4680BD3B
:102AE00080B58EB000AF78607B689B6893F89030BB
:102AF00087F8333097F833301B0987F8323097F86E
:102B0000333003F00803DB0887F8313097F83330AF
:102B100003F004039B0887F830307B689B68082229
:102B200083F880207B685B6823F4FF7323F0010344
:102B300097F8322002F00F0252011A4397F8313011
:102B400003F001031B011A4397F8303003F001032F
:102B5000DB0013431B68FB62FB6A1B0CC3F3090316
:102B6000BB62FB6A9B08DBB203F00F030D2B01D1A4
:102B7000012300E0002387F8273097F832305B000C
:102B8000DAB297F83130134387F8263097F82630B9
:102B90007A681B01134428335B79C3F38013DBB2DB
:102BA000002B00D103E297F82730002B04D07B687C
:102BB00097F8302083F8A32097F83130012B40F0AC
:102BC000C38097F8263097F82620796812010A44C6
:102BD00028321168BA6A0A4479681B010B44283309
:102BE0001A6097F826307A6802331B0113445A683A
:102BF00097F8263079681B010B4428331B68D31AD9
:102C00003B6297F8263097F82620796812010A442B
:102C100028325279C2F3C002D2B282F00102D1B29C
:102C20007A681B01134403F12802537961F3C3034B
:102C3000537197F8263097F82620796812010A44D4
:102C400028325279C2F30012D2B282F00102D1B21C
:102C50007A681B01134403F12802537961F30413CA
:102C600053713B6A002B0DD097F826307A681B0110
:102C7000134428339B88C3F309039BB21A46BB6AEB
:102C80009A424ED997F826307A681B0113442833AC
:102C90001B68FB6097F826307A6802331B011344E7
:102CA0001B68BB6097F826307A681B01134403F158
:102CB000280253796FF38613537197F826307A6898
:102CC0001B01134428339B88C3F309039BB21A46A4
:102CD000BB6A9A4223D197F83230002B1FD17B6810
:102CE00093F8A330DB0008337A6813440433FB61A4
:102CF000FB69DB881A4697F82630796802331B0196
:102D00000B445B689A420AD97B681A6897F832309C
:102D1000104619460022002301F0E8FC47E100BFFD
:102D200025E197F8323063F07F03DAB297F8263066
:102D3000796802331B010B441B68786811461A46F8
:102D40003B6A00F01BFA32E197F83230002B07D1D2
:102D5000BB6A002B04D10023FB600023BB6006E1AB
:102D600097F826307A681B01134428335B79C3F344
:102D70004013DBB2002B44D17B685B6823F4FF7304
:102D800023F0010397F8322002F00F0252011A4398
:102D900097F8263079681B010B4428335B79C3F31D
:102DA0000013DBB2DB00134304331B68BB6197F8ED
:102DB00026307A6802331B0113441A6897F82630CC
:102DC00079681B010B4428331B6813447B61BA6983
:102DD0007B699A4211D000237B630AE07A697B6B9E
:102DE0001344B9697A6B0A4412781A707B6B013309
:102DF0007B637A6BBB6A9A42F0D37B68002283F8CC
:102E0000A02097F8263097F82620796812010A4406
:102E100028321168BA6A0A4479681B010B442833C6
:102E20001A6097F826307A6802331B0113445A68F7
:102E300097F8263079681B010B4428331B68D31A96
:102E40003B6297F83230002B1BD197F82730002BCC
:102E500017D097F8323063F07F03DBB278681946F9
:102E600000F0DEFA7A6892F82D3043F0080382F819
:102E70002D307A6892F83D3043F0080382F83D30F7
:102E800017E097F8263097F82620796812010A444F
:102E900028325279C2F3C002D2B282F00102D1B21A
:102EA0007A681B01134403F12802537961F3C303C9
:102EB000537197F8263097F82620796812010A4452
:102EC00028325279C2F30012D2B282F00102D1B29A
:102ED0007A681B01134403F12802537961F3041348
:102EE000537197F826307A6802331B0113445B68EC
:102EF000002B10D03B6A002B0DD097F826307A6853
:102F00001B01134428339B88C3F309039BB21A4661
:102F1000BB6A9A421BD997F826307A681B01134482
:102F200028331B68FB6097F826307A6802331B0150
:102F300013441B68BB6097F826307A681B01134462
:102F400003F1280253796FF3861353710FE097F85A
:102F500026307A6802331B0113441B6897F832202D
:102F6000786811461A463B6A00F094F91FE097F81A
:102F700027307B7497F83130DB01DAB297F83230C2
:102F80001343DBB23B747B681A6807F108031046F1
:102F9000194601F0BFFA7B689B687A68926892F8DC
:102FA0009420D2B222F02002D2B283F89420383793
:102FB000BD4680BD80B586B000AF78607B680122D9
:102FC00083F8A1207B689B68012283F8802000237E
:102FD000FB6010233B7500233B6100237B757B68FE
:102FE0001A6807F10C031046194601F093FA1837D6
:102FF000BD4680BD80B582B000AF78607B689B68BD
:10300000802283F880207B6893F83D30C3F38003EF
:10301000DBB2002B07D17B6893F82D30C3F380031C
:10302000DBB2002B07D078688021FFF7C1FC7868FD
:103030000021FFF7BDFC0837BD4680BD80B586B0D6
:1030400000AF0346B9607A60FB732D4B3B61FB7B9D
:10305000002B02DCFB7B002B01D006234CE0FB7B2A
:10306000A42202FB03F2274B13447B617B69FA7BAA
:1030700083F8A220FB7B9B0007F11802134453F84E
:10308000083C1A467B699A60FB7B9A011E4B1A44E6
:103090007B69DA617B699B68FF2283F8802078690D
:1030A0000121002200F000FAFB7B5A02174B1A4460
:1030B0007B695A607B699B687A695268120AD2B24E
:1030C00083F89C207B699B687A695268120CD2B2A3
:1030D00083F8B0207B699B687A695268120ED2B27D
:1030E00083F8B4207869FFF7A9FA7B687A691A60D7
:1030F0007B69BA681A60002318461837BD4680BD40
:103100000020074000320120A432012000300120BD
:1031100080B485B000AF78607B68FB607B68002B73
:1031200001D1032324E0FB689B68FF2283F8802001
:10313000FB689B6893F88430FB689B68002283F8E7
:103140008420FB689B68002283F89820FB689B68BA
:10315000002283F89420FB689B68FA68926892F8D2
:103160000021D2B262F03F02D2B283F800210023E4
:1031700018461437BD465DF8047B704780B58AB0A9
:1031800002AFF8607A603B600B46FB72FB68BB6184
:10319000FB7A03F00F035B0043F001037B61012323
:1031A000FB77BA697B691B01134428335B79C3F34E
:1031B0008013DBB2002B1ED1BA697B691B0113445B
:1031C000283300221A60BA697B6902331B01134459
:1031D0007A681A60BA697B6902331B0113443A6842
:1031E0005A60BA697B691B01134403F128025379C1
:1031F00043F020035371BA697B691B0113442833E0
:103200009B88C3F309039BB21A463B689A4209D2D2
:10321000BA697B691B01134428339B88C3F30903F4
:103220009BB23B60BB6993F8A130002B1AD1FB7AAB
:1032300003F00F03DAB2B9697B6902331B010B4457
:103240001B681946B8697B691B01034428331B6856
:103250000B4439680091B86911460122FFF744F91F
:103260000346FB77BA697B691B01134428331B684B
:10327000002B0AD13B68002B07D1FB7A03F00F0328
:10328000002B02D1B869FFF7A7F9FB7F184620375A
:10329000BD4680BD80B58AB002AFF8607A603B6001
:1032A0000B46FB72FB68BB61FB7A03F00F035B000C
:1032B0007B610123FB77BA697B691B0113442833C7
:1032C0005B79C3F38013DBB2002B14D1BA697B693D
:1032D0001B011344283300221A60BA697B69023348
:1032E0001B0113447A681A60BA697B6902331B01B7
:1032F00013443A685A60BA697B691B01134403F1AD
:103300002802537943F020035371BA697B691B018A
:10331000134428339B88C3F309039BB21A463B68C6
:103320009A4209D2BA697B691B01134428339B88EE
:10333000C3F309039BB23B60BA697B691B01134469
:1033400028331A687B6813447B60BB69DB69002BF8
:1033500022D0BB6993F8A030002B1DD13B68402BD5
:103360001AD83B6803F00303002B04D17B6803F0F9
:103370000303002B10D0BA697B691B01134403F1CE
:10338000280253796FF345135371BB69DB697B6086
:10339000BB69012283F8A020BB6993F8A130002B00
:1033A0000DD1FB7A03F00F03DBB23A680092B869E3
:1033B000194600227B68FFF797F80346FB773B68C6
:1033C000002B27D1FB7A03F00F03002B22D1BA691F
:1033D0007B691B01134428335B79C3F30013DBB211
:1033E00083F00103D9B2BA697B691B01134403F16D
:1033F0002802537961F304135371BA697B691B0185
:10340000134403F1280253796FF386135371B8699B
:10341000FFF7E2F8FB7F18462037BD4680BD00BFAE
:1034200080B588B000AF78600B46FB707B68FB61AD
:10343000FB7803F00F03DBB25B00DAB2FB78DB0949
:10344000DBB21343FB76FB7EFA691B01134428337E
:103450005B79C3F38013DBB2002B1FD04FF0FF3337
:103460003B61FB7EFA6902331B0113441B68FB605E
:10347000FB783B7500237B75FB7EFA691B011344C7
:1034800003F1280253796FF386135371FB691A68AD
:1034900007F10C031046194601F03CF800231846CA
:1034A0002037BD4680BD00BF80B58AB000AFF86050
:1034B0000B467A60FB72FB683B62012387F827307A
:1034C000FB68002B01D103232CE1FB7A0F2B00F2C8
:1034D000268101A252F823F0193500007F35000043
:1034E000C3350000DB350000FB3500001B36000053
:1034F0003B360000553600009F3600001F370000A5
:103500001F370000BF360000053700001F370000DE
:103510001F3700001F3700003B6A9B68002283F8BA
:1035200000213B6A9B681B7FDBB203F00403002B86
:1035300009D03B6A9B683A6A9268127FD2B262F005
:103540007F02D2B21A773B6A9B683A6A926892F815
:103550000821D2B242F01002D2B283F808213B6AAD
:103560009B683A6A926892F89420D2B242F00102C3
:10357000D2B283F89420002387F82730D0E03B6A4A
:103580009B681B7FDBB203F00403002B09D03B6A6E
:103590009B683A6A9268127FD2B202F07F02D2B27E
:1035A0001A773B6A9B683A6A926892F80821D2B20D
:1035B00022F01002D2B283F80821002387F82730C6
:1035C000AEE07B68002B07D0386A7968FFF7DEF839
:1035D000034687F82730A3E0A2E07B68002B0BD0DE
:1035E0007B68FB61FB691B78386A1946FFF756F95F
:1035F000034687F8273093E092E07B68002B0BD0DE
:103600007B68FB61FB691B78386A1946FFF774F920
:10361000034687F8273083E082E07B68002B0BD0DD
:103620007B68FB61FB691B78386A1946FFF7C0F9B4
:10363000034687F8273073E072E07B68002B08D0E0
:103640007B68BB61BB6901221A80002387F82730A1
:1036500066E065E07B68002B20D07B687B617B693E
:103660001B7803F00F03032B18D87B691B7803F03A
:103670000F035A007B691B78DB09DBB213433A6AFC
:103680001B01134428335B79C3F38003DBB21A4672
:103690007B695A80002387F8273041E040E07B684F
:1036A000002B0BD07B68FB613B6A9B68FA69127840
:1036B00083F89820002387F8273031E030E000239A
:1036C00087F8263013E097F8263063F07F03DBB2EB
:1036D000386A1946FFF7E2F897F82630386A194633
:1036E000FFF7DCF897F82630013387F8263097F893
:1036F0002630032BE7D9386AFEF7A0FF002387F8AE
:1037000027300DE07B68002B08D07B68FB61FB69EC
:1037100000221A70002387F8273001E000E000BF84
:1037200097F8273018462837BD4680BD80B586B04B
:1037300000AF78607B687B617B68002B00D12BE059
:103740007B691B683B613B699B6893F88030FB7326
:10375000FB7B03F00803002B02D03869FFF7C0F9A8
:10376000FB7B03F00103002B02D03869FFF722FC3A
:10377000FB7B5BB2002B02DA3869FFF73BFC3B694D
:103780009B6893F85C31FB73FB7B002B04D03B6997
:103790009B68FA7B83F85C211837BD4680BD00BF6B
:1037A00080B586B000AFF860B9607A603B600523F1
:1037B000FB75FB681A6807F11603104606211A46C6
:1037C00001F07EF8BB7D012B04D0BB7D002B01D026
:1037D000FB7D58E0BB681B7803F01F03002B19D159
:1037E000FB681A68FB681033104604211A4601F082
:1037F00067F80346FB75FB681B8A03F003039AB264
:10380000FB681A82FB681A8AFB681A823B680222EC
:103810001A6032E0BB681B7803F01F03012B08D14C
:103820000023FB75FB6800221A823B6802221A60A3
:1038300023E0BB681B7803F01F03022B1DD1BB687C
:103840009B88DBB23B7400237B82FB681A6807F11C
:103850001003104605211A4601F032F80346FB75A5
:103860007B8A03F003039AB2FB681A82FB681A8A08
:10387000FB681A823B6802221A60FB6803F110029F
:103880007B681A60FB7D18461837BD4680BD00BFB7
:1038900080B586B000AFF860B9607A603B60052300
:1038A000FB7500237B75FB681A6807F11603104649
:1038B00006211A4601F004F8BB7D012B04D0BB7D24
:1038C000002B01D0FB7D70E0BB685B78032B01D13E
:1038D00001237B75BB681B7803F01F03002B0FD1FE
:1038E000BB685B88012B5FD1FB681A6807F1150381
:1038F000104610211A4602F071FA0346FB7553E098
:10390000BB681B7803F01F03022B4DD1BB685B889B
:10391000002B49D1BB689B8803F00F03002B29D1F2
:103920007B7D002B13D0FB681A68BB689B88DBB2D9
:1039300003F00F03D9B2BB689B88DB099BB2DBB2F3
:103940000B43DBB21046194600F08AFF12E0FB6819
:103950001A68BB689B88DBB203F00F03D9B2BB685F
:103960009B88DB099BB2DBB20B43DBB210461946E6
:1039700000F08EFF7B7D002B0BD0FB681A68BB68C4
:103980000433104605211A4602F0B8F90346FB75C8
:103990000AE0FB681A68BB680433104606211A4621
:1039A00002F0ACF90346FB75FB7D18461837BD469F
:1039B00080BD00BF80B586B000AFF860B9607A60A6
:1039C0003B600523FB75FB681A6807F11603104678
:1039D00006211A4600F074FFBB7D032B07D0BB7D88
:1039E000012B04D0BB7D022B01D0FB7D2CE0BB7DE5
:1039F000032B0FD0BB685B88DBB2BB75FB681A6812
:103A000007F11603104607211A4600F0BFFF0346D0
:103A1000FB7518E0FB681B6818460721002200F0C0
:103A2000B5FF0346FB75FB7D002B0CD10123BB7555
:103A3000FB681A6807F11603104606211A4600F0C3
:103A4000A5FF0346FB75FB7D18461837BD4680BDB4
:103A500080B58AB000AFF860B9607A603B6005233A
:103A600087F82730BB685B881B0A9BB287F8263033
:103A7000BB685B8887F82530FB681A6807F1170375
:103A8000104606211A4600F01BFFFB7D012B08D0D3
:103A9000FB7D002B05D0FB7D022B02D097F8273051
:103AA00047E0BB68DB88FB6197F82630012B0CD11F
:103AB000FB681A6807F11803104609211A4602F03C
:103AC0008DF9034687F827302BE097F82630022B34
:103AD00010D197F8253087F82030FB681A6807F175
:103AE000180310460A211A4602F078F9034687F8AF
:103AF000273016E097F82630032B12D197F825309F
:103B000087F82230BB689B883B84FB681A6807F102
:103B1000180310460B211A4602F060F9034687F895
:103B20002730BA697B681A60FA693B681A6097F8AF
:103B3000273018462837BD4680BD00BF80B586B007
:103B400000AFF860B9607A603B60FB681A6807F103
:103B50001703104606211A4600F0B2FEFB7D012B2A
:103B600004D0FB7D002B01D0052311E03B6801222E
:103B70001A60FB6803F110027B681A60FB681A6820
:103B8000FB681033104611211A4602F027F903464C
:103B900018461837BD4680BD80B586B000AFF860C6
:103BA000B9607A603B60FB681A6807F1170310463A
:103BB00006211A4600F084FEFB7D012B04D0FB7D1C
:103BC000002B01D005232CE00023FB75FB681A684D
:103BD00007F11703104606211A4600F0D7FEBB680E
:103BE0005B88002B0AD10123FB75FB681A6807F17B
:103BF0001703104606211A4600F0C8FEFB681A6833
:103C0000BB680233104603211A4602F077F8FB68BE
:103C10001A68BB680233104607211A4602F0DEF824
:103C2000034618461837BD4680BD00BF80B586B034
:103C300000AFF860B9607A603B600523FB75FB68F4
:103C40001A6807F11603104606211A4600F038FEDE
:103C5000BB7D002B01D0FB7D17E03B6801221A6081
:103C6000FB6803F110027B681A60BB689B88DBB2BB
:103C70009AB2FB681A82FB681A68FB681033104618
:103C800012211A4602F0AAF8034618461837BD4614
:103C900080BD00BF80B586B000AFF860B9607A60C3
:103CA0003B60FB681A6807F11703104606211A46A5
:103CB00000F006FEFB7D002B01D005231EE0BB6853
:103CC0009B881B029AB2BB685B88DBB29BB2134332
:103CD0009AB2FB681A82FB681A68FB6810331046B8
:103CE00004211A4602F00AF8FB681A68FB681033D0
:103CF000104608211A4602F071F803461846183794
:103D0000BD4680BD80B586B000AFF860B9607A600E
:103D10003B600523FB75FB681A6807F11603104624
:103D200006211A4600F0CCFDBB7D002B01D0FB7DA7
:103D300017E0BB689A88FB681A82FB681A68FB6800
:103D40001033104608211A4600F0BAFD0346FB75F1
:103D5000FB6803F110027B681A603B6802221A605C
:103D6000FB7D18461837BD4680BD00BF80B586B0C4
:103D700000AFF860B960FA71BB710123FB750123D4
:103D8000BB75FB79052B1ED1BB681B7803F0600364
:103D9000002B0ED0BB681B78DBB25BB2002B08DBBC
:103DA000BB68DB88002B04D0BB79002B01D100233A
:103DB000BB75BB7DDB01DBB2F868194600F050FD36
:103DC0000346FB7525E07B6A1A68BB68DB889A426C
:103DD00004D9BB68DB881A467B6A1A603B6A1A689A
:103DE0007B6A1B68F868002100F080FC0346FB75C5
:103DF000FB7D002B0DD1BB681B78DBB25BB2002BC7
:103E000007DAF86800210022002300F089FC03464D
:103E1000FB75FB7D18461837BD4680BD90B5A7B031
:103E200002AFF860B9607A600023FB670023BB67CC
:103E3000052387F88F30BB685B68B3F1FF3F02D082
:103E40007B68002B02D197F88F309EE17B68C7F822
:103E50008830D7F888300833C7F8843007F1770303
:103E6000F86806211A4600F02BFDBB681B7A002B70
:103E700000F01481BB685B68082B03D1BB681B682A
:103E8000002B02D197F88F307FE1BB681B68C7F821
:103E90008030D7F880305A88D7F884305A80D7F8E5
:103EA00080309A88D7F884309A80D7F88030DA88C2
:103EB000D7F88430DA80D7F880305A78D7F8843051
:103EC0005A70D7F880301A78D7F884301A70D7F83B
:103ED00084301B7803F06003002B1DD1D7F88430A9
:103EE0005B781A46AB4B53F82230002B00F0C380AE
:103EF000D7F884305B781A46A64B53F8224007F176
:103F00007C0207F17803D7F88800D7F88410A0471F
:103F1000034687F88F30AEE0D7F88430DB88002B7B
:103F200066D0D7F884301B78DBB25BB2002B5FDB46
:103F3000D7F88430DB88002B21D0D7F884301B7869
:103F400003F02003002B1AD00023BB66012387F85F
:103F50007030D7F884307B66D7F88430DB88FB6616
:103F600007F16403F86801211A4601F0C7FE034611
:103F700087F88F30FB6EBB67BB6EFB6725E0D7F819
:103F80008430DB88002B20D0D7F884301B7803F0F6
:103F90004003002B19D00023BB65012387F8603054
:103FA000D7F884307B65D7F88430DB88FB6507F170
:103FB0005403F8680F211A4601F010FF034687F8F2
:103FC0008F30FB6DBB67BB6DFB6797F88F30002BA5
:103FD0000DD1FA6FD7F88430DB88F868002100F043
:103FE0009FFB034687F88F3097F88F30CDE042E093
:103FF000D7F884301B7803F02003002B1AD000235D
:10400000BB64012387F85030D7F884307B64D7F83D
:104010008430DB88FB6407F14403F86801211A4609
:1040200001F06CFE034687F88F30FB6CBB67BB6CFE
:10403000FB6720E0D7F884301B7803F04003002BA7
:1040400019D00023BB63012387F84030D7F88430B0
:104050007B63D7F88430DB88FB6307F13403F868AF
:104060000F211A4601F0BAFE034687F88F30FB6B2A
:10407000BB67BB6BFB6797F88F3007F17C02009240
:1040800007F178020192F868D7F884101A460023E5
:10409000FFF76CFE034687F88F3074E097F87730AF
:1040A000032B13D1D7F884305B781A46394B53F879
:1040B000224007F17C0207F17803D7F88800D7F88F
:1040C0008410A047034687F88F305CE0BB685B68CC
:1040D000002B58D0D7F88430DB88002B53D0D7F88A
:1040E00084301B78DBB25BB2002B4CDBD7F884301A
:1040F0001B7803F02003002B16D0BB681B68BB6243
:10410000002387F83030D7F884307B62BB685B6867
:10411000FB6207F12403F86801211A4601F0EEFD65
:10412000034687F88F301CE0D7F884301B7803F003
:104130004003002B15D0BB681B68BB61002387F8C8
:104140002030D7F884307B61BB685B68FB6107F186
:104150001403F8680F211A4601F040FE034687F861
:104160008F3097F88F3007F17C02009207F17802C8
:104170000192F868D7F884101A460123FFF7F6FD7C
:10418000034687F88F3097F88F3018469437BD462E
:1041900090BD00BF80C2000080B586B000AF7860DF
:1041A00039601B4BBB603B68FB6001233B75002300
:1041B000FB748023BB7440233B8207F1100207F19C
:1041C0000803786811461A4600F0C2FA0346FB75E8
:1041D000FB7D002B01D0FB7D16E00023BB7407F1B3
:1041E000100207F10803786811461A4600F0B0FA89
:1041F0000346FB75FB7D002B05D07868802100F01D
:10420000EFFAFB7D00E0002318461837BD4680BD5D
:104210001D3E000080B584B000AF03463960FB71DD
:1042200003F0EEFA0023FB601CE02849FA6813460D
:104230009B0013441B010B441B68002B0FD0234928
:10424000FA6813469B0013441B010B4448335B7907
:10425000FA799A4203D103F0E7FA012332E0FB68CE
:104260000133FB60FB68002BDFD00023FB6023E001
:104270001649FA6813469B0013441B010B441B6844
:10428000002B16D11149FA6813469B0013441B01F9
:104290000B444833FA795A71FA6813469B00134469
:1042A0001B010A4A1A443B681A6003F0BDFA002356
:1042B00008E0FB680133FB60FB68002BD8D003F0FB
:1042C000B3FA022318461037BD4680BDE432012000
:1042D00080B582B000AF786003F092FA7B6800226C
:1042E0001A607B68002283F84D2003F09DFA0023BA
:1042F00018460837BD4680BD80B485B000AF034680
:104300003960FB710623FB73FB790033012B05D861
:104310003B68064A1A600023FB7300E000BFFB7B8A
:1043200018461437BD465DF8047B7047B4C20000E0
:1043300090B587B000AFF8607A603B600B46FB72C7
:10434000FB683B610123FB753B69002B01D1032313
:1043500026E03B695B68002B1FD0FB7A5BB2002B29
:104360000DDA3B695B689C683B691A68FB7A10460A
:1043700019467A683B68A0470346FB750FE03B6926
:104380005B68DC683B691A68FB7A104619467A68F4
:104390003B68A0470346FB7501E00623FB75FB7DE8
:1043A00018461C37BD4690BD80B586B000AFF8609A
:1043B0000B467A60FB72FB683B610123FB753B692E
:1043C000002B01D1032313E03B695B68002B0CD069
:1043D0003B695B685B693A691168FA7A084611467D
:1043E0007A6898470346FB7501E00623FB75FB7D61
:1043F00018461837BD4680BD80B584B000AF7860E0
:10440000396078680B210022FFF7CEFF7B6802221B
:1044100083F84E207B68002283F84C200023FB6049
:1044200010E07A68FB680133DB00134400225A6015
:104430007A68FB680133DB00134400229A60FB6852
:104440000133FB60FB68072BEBD97B689B687868BE
:10445000012100229847002318461037BD4680BD31
:1044600090B587B000AF786039603B681B7A03F085
:104470000F03BB753B681B7ADB097B750123FB755A
:104480003B681B7A102B06D178683968FFF7B4FFB8
:104490000346FB7538E0BB7D032B34D8BB7D5B0046
:1044A000DAB27B7D1343DBB27A680133DB0013445D
:1044B0005B68002B27D03B681B68BB603B685B6870
:1044C000FB603B685B7A3B74BB7D5B00DAB27B7D53
:1044D0001343DBB27A680133DB0013445C68BB7DB5
:1044E0005B00DAB27B7D1343DBB27A680133DB0019
:1044F00013449B6807F10802786811461A46A047E2
:104500000346FB75FFE700BFFB7D18461C37BD4621
:1045100090BD00BF80B584B000AF786039607B6823
:10452000FB603B68BB603B68002B02D07B68002BC4
:1045300001D103230AE0FB689B68002B01D1012312
:1045400004E0F868B968FFF78BFF03461846103798
:10455000BD4680BD80B588B000AF0346B9607A60C3
:10456000FB7300237B617B68002B01D1032389E06F
:10457000FA7B07F1140310461946FFF74BFE03467A
:10458000FB76FB7E002B01D0FB7E7BE07B69BA686B
:104590009A607B69FA7B83F84D207B69002283F85F
:1045A0004C200023FB6110E07A69FB690133DB00DA
:1045B000134400225A607A69FB690133DB0013441B
:1045C00000229A60FB690133FB61FB69072BEBD981
:1045D0007B690433FA7B10461946FFF78DFE0346CC
:1045E000FB76FB7E002B05D07B691846FFF770FE3B
:1045F000FB7E47E07B695B68002B05D17B69184631
:10460000FFF766FE06233DE07B695B681B68002BB5
:1046100018D07B695B685B68002B13D07B695B6893
:104620009B68002B0ED07B695B68DB68002B09D090
:104630007B695B681B69002B04D07B695B685B69E5
:10464000002B05D17B691846FFF742FE072319E0CE
:104650007B695B681B6879697A69F87B98470346D0
:10466000FB76FB7E002B05D07B69184600F01CF81A
:10467000FB7E07E07B69022283F84E207A697B6823
:104680001A60FB7E18462037BD4680BD80B582B0DB
:1046900000AF7860786800210022FFF785FE0346AE
:1046A00018460837BD4680BD80B584B000AF78603D
:1046B0007B68FB60FB68002B01D1032311E0FB68E2
:1046C0005B68002B09D0FB685B685B68FA6812685E
:1046D00010469847FB6800225A60F868FFF7F8FD1B
:1046E000002318461037BD4680BD00BF80B584B09A
:1046F00000AFF8607A603B600B46FB72FB7A03F018
:104700000F03DBB263F07F03DBB2F86819467A6807
:104710003B68FFF70DFE034618461037BD4680BDC7
:1047200080B584B000AFF8607A603B600B46FB72E6
:10473000FB7A03F00F03DBB2F86819467A683B682E
:10474000FFF7F6FD034618461037BD4680BD00BF93
:1047500080B586B000AFF860B9607A60FB687B61B5
:104760007B69002B01D1032335E0BB68002B02D00D
:104770007B68002B01D104232DE0BB689B7803F0FC
:104780000F03FB74BB689B78DB09BB74FB7C032BBA
:1047900020D8FB7C5B00DAB2BB7C1343DBB27A68C7
:1047A000126879690133DB000B445A60FB7C5B00C3
:1047B000DAB2BB7C1343DBB27A68526879690133A1
:1047C000DB000B449A60F8680221BA68FFF7ECFD41
:1047D000034600E0042318461837BD4680BD00BFDD
:1047E00080B584B000AF78600B46FB707B68FB60DF
:1047F000FB7803F00F03FB72FB78DB09BB7201232C
:104800007B72FB68002B01D1032325E0FB1C786839
:1048100003211A46FFF7C8FD03467B72FB7A032B80
:1048200019D8FB7A5B00DAB2BB7A1343DBB2FA68C1
:104830000133DB00134400225A60FB7A5B00DAB2DA
:10484000BB7A1343DBB2FA680133DB001344002266
:104850009A607B7A00E0042318461037BD4680BD7D
:1048600080B582B000AF78600B46FB70FB7803F038
:104870000F03032B07D8FB1C786804211A46FFF7A7
:1048800093FD034600E0042318460837BD4680BD6B
:1048900080B582B000AF78600B46FB70FB7803F008
:1048A0000F03032B07D8FB1C786805211A46FFF776
:1048B0007BFD034600E0042318460837BD4680BD53
:1048C00080B586B000AFF8600B467A60FB720123BA
:1048D000FB757B68002B01D1042353E0FB7A023B7C
:1048E000062B4DD801A252F823F000BF0949000061
:1048F00019490000514900006149000029490000A0
:104900003D49000071490000F8680C217A68FFF702
:104910004BFD0346FB7534E0F8680D217A68FFF71C
:1049200043FD0346FB752CE07B683B610023FB7570
:10493000FB6893F84E203B691A7022E07B683B616C
:104940000023FB75FB6893F84C203B691A7018E054
:10495000F86806217A68FFF727FD0346FB7510E02B
:10496000F86807217A68FFF71FFD0346FB7508E02A
:10497000F86809217A68FFF717FD0346FB7500E028
:1049800000BFFB7D18461837BD4680BD80B586B098
:1049900000AFF8600B467A60FB720123FB75FB7A6F
:1049A000033B062B4BD801A252F823F0C949000063
:1049B0003F4A00003F4A0000D9490000F149000089
:1049C0003F4A00002F4A0000F8680E217A68FFF77E
:1049D000EBFC0346FB7533E07B68002B07D000231C
:1049E000FB757B681A78FB6883F84E2028E027E087
:1049F000FB6893F84E30032B0ED07B68002B15D04C
:104A00000023FB757B681A78FB6883F84C20FB68F1
:104A1000032283F84E2013E0FB684C33F86808212A
:104A20001A46FFF7C1FC0346FB7509E008E0F86889
:104A30000A217A68FFF7B8FC0346FB7500E000BF67
:104A4000FB7D18461837BD4680BD00BF80B584B0D9
:104A500000AF786002F0D4FE0023FB6019E0124939
:104A6000FA6813465B001344DB000B441B68002B01
:104A70000CD1FA6813465B001344DB000A4A1A445F
:104A80007B681A6002F0D0FE002308E0FB68013367
:104A9000FB60FB68002BE2D002F0C6FE0223184642
:104AA0001037BD4680BD00BF3433012080B582B0D1
:104AB00000AF786002F0A4FE7B6800221A607B6879
:104AC00000225A607B6800221A747B6800229A7464
:104AD0007B6800221A7502F0A7FE002318460837EB
:104AE000BD4680BD80B586B000AFF860B9607A6021
:104AF0000123FB757B683B613B69002B01D10323DC
:104B000013E03B695B68002B0ED03B695B681B6858
:104B1000002B09D03B695B681B683A69104603218A
:104B2000BA6898470346FB75FB7D18461837BD46A3
:104B300080BD00BF80B586B000AFF860B9607A6014
:104B40000123FB757B683B613B69002B01D103238B
:104B500016E03B6900225A753B695B68002B0ED05A
:104B60003B695B681B68002B09D03B695B681B686D
:104B70003A6910460121BA6898470346FB75FB7DE8
:104B800018461837BD4680BD80B586B000AFF860C6
:104B9000B9607A600123FB757B683B613B69002B40
:104BA00001D1032316E03B6900229A753B695B68DB
:104BB000002B0ED03B695B681B68002B09D03B695A
:104BC0005B681B683A6910460221BA689847034639
:104BD000FB75FB7D18461837BD4680BD80B58CB08F
:104BE00000AF78600023FB62012387F82B307B68DD
:104BF0001A7C7B685B689B685B799A4202D997F85C
:104C00002B30CBE07B685B689B681B68002B02D174
:104C100097F82B30C2E07B685B689B681A687B68FA
:104C20001B7C03F10053013BDB001344BB610023F9
:104C30007B6256E0BB6959687A6A13465B0013448D
:104C40009B000B441B780E2B48D1BB6959687A6ACC
:104C500013465B0013449B000B445B78022B3DD151
:104C600000233B6221E0BB6959687A6A13465B0006
:104C700013449B000B445A683B6A1B0113441A7887
:104C80007B681B7D9A420DD1BB6959687A6A1346CD
:104C90005B0013449B000B445A683B6A1B0113449E
:104CA000FB620FE03B6A01333B62BB6959687A6A79
:104CB00013465B0013449B000B441B7A1A463B6A65
:104CC0009A42D0DCBB6959687A6A13465B00134488
:104CD0009B000B44DA787B68DA7408E07B6A013366
:104CE0007B62BB691B781A467B6A9A42A2DCFB6A2C
:104CF000002B02D197F82B3050E07B68FA6ADA601B
:104D00000023FB6142E000233B75FB6A9A68FB6964
:104D10009B0013441B78BB74FB6A9A68FB699B0079
:104D200013445B883B82FB6A9A68FB699B001344CF
:104D30005B78FB74FB7C03F00303012B07D1BB7C86
:104D4000DB09DBB2012B02D1164BBB600BE0FB7C15
:104D500003F00303012B16D1BB7CDBB25BB2002B4B
:104D600011DB114BBB607B68FB607B68196807F146
:104D7000100207F10803084611461A46FFF7E8FC3F
:104D8000034687F82B30FB690133FB61FB6A1B7913
:104D90001A46FB699A42B6DC97F82B301846303732
:104DA000BD4680BD354B0000894B000080B584B006
:104DB00000AF78600123FB737B68DB68002B01D1B7
:104DC000FB7B1CE00023BB6011E07B681A687B68FA
:104DD000DB689968BB689B000B441B78104619463A
:104DE000FFF7FEFC0346FB73BB680133BB607B68C7
:104DF000DB681B791A46BB689A42E6DCFB7B1846E7
:104E00001037BD4680BD00BF80B58CB000AF786064
:104E10000023FB62012387F82B307B681A7C7B68B8
:104E20005B689B685B799A4202D997F82B30BEE0A9
:104E30007B685B689B681B68002B02D197F82B305E
:104E4000B5E07B685B689B681A687B681B7C03F134
:104E50000053013BDB001344BB6100237B6256E03F
:104E6000BB6959687A6A13465B0013449B000B4484
:104E70001B780E2B48D1BB6959687A6A13465B00D0
:104E800013449B000B445B78012B3DD100233B6214
:104E900021E0BB6959687A6A13465B0013449B00A2
:104EA0000B445A683B6A1B0113441A787B689B7C4D
:104EB0009A420DD1BB6959687A6A13465B00134464
:104EC0009B000B445A683B6A1B011344FB620FE0D2
:104ED0003B6A01333B62BB6959687A6A13465B00DF
:104EE00013449B000B441B7A1A463B6A9A42D0DC5F
:104EF000BB6959687A6A13465B0013449B000B44F4
:104F0000DA787B685A7408E07B6A01337B62BB699C
:104F10001B781A467B6A9A42A2DCFB6A002B02D1FC
:104F200097F82B3043E07B68FA6A9A600023FB61B4
:104F300035E000233B75FB6A9A68FB699B001344CC
:104F40001B78BB74FB6A9A68FB699B0013445B88FF
:104F50003B82FB6A9A68FB699B0013445B78FB7495
:104F6000FB7C03F00303032B16D1BB7CDB09DBB214
:104F7000012B11D1104BBB607B68FB607B6819680B
:104F800007F1100207F10803084611461A46FFF719
:104F9000DFFB034687F82B30FB690133FB61FB6ABB
:104FA0001B791A46FB699A42C3DC97F82B301846E6
:104FB0003037BD4680BD00BFE54A000080B584B0F3
:104FC00000AF78600123FB737B689B68002B01D1E5
:104FD000FB7B1CE00023BB6011E07B681A687B68E8
:104FE0009B689968BB689B000B441B781046194668
:104FF000FFF7F6FB0346FB73BB680133BB607B68BE
:105000009B681B791A46BB689A42E6DCFB7B184614
:105010001037BD4680BD00BF80B584B000AF78605A
:1050200039600523FB730023BB603B681B685B781A
:10503000812B08D0862B0AD0012B00D00BE040F248
:105040000113BB6007E048F20113BB6003E048F2C4
:105050000163BB6000BFBB68002B12D07B685B683C
:10506000002B0ED07B685B681B68002B09D07B6827
:105070005B681B687A681046B9683A6898470346C7
:10508000FB73FB7B18461037BD4680BD80B584B0EE
:1050900000AF786039600523FB733B681B685B8851
:1050A0001B0A9BB2BB73BB7B012B05D178683968A7
:1050B000FFF7B2FF0346FB73FB7B18461037BD4674
:1050C00080BD00BF80B485B000AF78603960052333
:1050D000FB733B681B685B881B0A9BB2BB73BB7B83
:1050E000013B132B2AD801A252F823F03D510000B6
:1050F0003D5100003D5100003D5100003D51000078
:105100003D5100003D5100003D5100003D51000067
:105110003D5100003D5100003D5100003D51000057
:105120003D5100003D5100003D5100003D51000047
:105130003D5100003D5100003D51000000BFFB7B90
:1051400018461437BD465DF8047B704780B485B0BF
:1051500000AF786039600523FB733B681B685B8890
:105160001B0A9BB2BB73BB7B013B122B28D801A24D
:1051700052F823F0C1510000C1510000C15100009C
:10518000C1510000C1510000C1510000C1510000D7
:10519000C1510000C1510000C1510000C1510000C7
:1051A000C1510000C1510000C1510000C1510000B7
:1051B000C1510000C1510000C1510000C1510000A7
:1051C00000BFFB7B18461437BD465DF8047B704773
:1051D00080B586B000AF786039600523FB753B6809
:1051E0001B689B881B0A9BB2FB737B689B68002B28
:1051F00001D1FB7D56E07B689B68DB68BB60FB7B75
:10520000002B06D178683968FFF740FF0346FB752D
:1052100047E000233B613EE0BB681A683B699B00A6
:1052200013441B78FA7B9A4232D1BB681A683B69F7
:105230009B0013445B78023B052B28D801A252F84F
:1052400023F000BF5D5200008F5200008F5200001B
:10525000815200008F5200008F520000BB681A6814
:105260003B699B0013445A8840F201239A4206D1BD
:1052700078683968FFF726FF0346FB7508E007E00A
:1052800078683968FFF762FF0346FB7500E000BFEE
:105290003B6901333B61BB681B791A463B699A4203
:1052A000BADCFB7D18461837BD4680BD80B584B09A
:1052B00000AF786039600523FB730023BB603B6857
:1052C0001B685B78832B1DD0832B06DC812B11D0D0
:1052D000812B13DC012B09D028E0852B1AD0852BDC
:1052E00014DB862B1AD0872B1CD01FE040F26113F1
:1052F000BB601BE048F26113BB6017E048F261231A
:10530000BB6013E048F26133BB600FE048F26143D9
:10531000BB600BE048F26153BB6007E048F2616399
:10532000BB6003E048F26173BB6000BFBB68002B49
:1053300012D07B685B68002B0ED07B685B681B68B3
:10534000002B09D07B685B681B687A681046B968D7
:105350003A6898470346FB73FB7B18461037BD46F7
:1053600080BD00BF80B584B000AF78603960052390
:10537000FB730023BB603B681B685B78812B0DD0FF
:10538000812B02DC012B05D014E0852B0AD0862B63
:105390000CD00FE04FF4B173BB600BE048F2621326
:1053A000BB6007E048F26253BB6003E048F262630F
:1053B000BB6000BFBB68002B12D07B685B68002B12
:1053C0000ED07B685B681B68002B09D07B685B682C
:1053D0001B687A681046B9683A6898470346FB73B9
:1053E000FB7B18461037BD4680BD00BF80B584B03A
:1053F00000AF786039600523FB730023BB603B6816
:105400001B685B78832B1DD0832B06DC812B11D08E
:10541000812B13DC012B09D028E0852B1AD0852B9A
:1054200014DB862B1AD0872B1CD01FE040F26313AD
:10543000BB601BE048F26313BB6017E048F26323D4
:10544000BB6013E048F26333BB600FE048F2634394
:10545000BB600BE048F26353BB6007E048F2636354
:10546000BB6003E048F26373BB6000BFBB68002B06
:1054700012D07B685B68002B0ED07B685B681B6872
:10548000002B09D07B685B681B687A681046B96896
:105490003A6898470346FB73FB7B18461037BD46B6
:1054A00080BD00BF80B584B000AF7860396005234F
:1054B000FB730023BB603B681B685B78812B0DD0BE
:1054C000812B02DC012B05D014E0852B0AD0862B22
:1054D0000CD00FE04FF4B273BB600BE04FF4B2732B
:1054E000BB6007E04FF4B273BB6003E04FF4B273EC
:1054F000BB6000BFBB68002B12D07B685B68002BD1
:105500000ED07B685B681B68002B09D07B685B68EA
:105510001B687A681046B9683A6898470346FB7377
:10552000FB7B18461037BD4680BD00BF80B584B0F8
:1055300000AF786039600523FB730023BB603B68D4
:105540001B685B78812B08D0862B0AD0012B00D0FA
:105550000BE040F26513BB6007E048F26513BB60E7
:1055600003E048F26563BB6000BFBB68002B12D04C
:105570007B685B68002B0ED07B685B681B68002B28
:1055800009D07B685B681B687A681046B9683A681E
:1055900098470346FB73FB7B18461037BD4680BD1A
:1055A00080B584B000AF786039600523FB733B6839
:1055B0001B685B881B0A9BB2BB73BB7B013B082B40
:1055C00037D801A252F823F0ED550000FB5500003A
:1055D00009560000175600002556000033560000FB
:1055E000335600003356000033560000786839689F
:1055F000FFF75CFE0346FB731CE078683968FFF731
:10560000B1FE0346FB7315E078683968FFF7EEFEDC
:105610000346FB730EE078683968FFF743FF0346E3
:10562000FB7307E078683968FFF780FF0346FB7378
:1056300000E000BFFB7B18461037BD4680BD00BFB1
:1056400080B58EB000AFF860B9607A60012387F84A
:1056500037307B68002B02D0FB68002B01D103237D
:105660009EE1FB683B62BB68013B052B00F2958124
:1056700001A252F823F000BFFF580000915600002D
:10568000A55600001B570000A75700005358000004
:105690003B6A00221A743B6A00229A753B6A002218
:1056A0005A757BE17B68FB613B6A5B68002B00D12C
:1056B00074E1FB691A783B6A1B7C9A4200D16DE168
:1056C0003B6A1B7C002B0BD0386AFFF777FC034644
:1056D00087F83730386AFFF769FB034687F83730B9
:1056E000FB691A783B6A1A743B6A00229A743B6A17
:1056F00000221A753B6A00229A603B6A0022DA6037
:10570000386AFFF781FB034687F83730386AFFF7BE
:1057100065FA034687F8373040E13B6A5B68002B47
:1057200000D13BE17B681B887B837B8B7B763B6A6C
:105730005A7C7B8B1B0A9BB2DBB29A4215D13B6A27
:105740009B7C7A7E9A4200D128E1386AFFF736FCCA
:10575000034687F837303B6A7A7E9A74386AFFF7D7
:1057600053FB034687F837301CE03B6ADA7C7B8BBF
:105770001B0A9BB2DBB29A4214D13B6A1B7D7A7E34
:105780009A4200D10AE1386AFFF710FB034687F816
:1057900037303B6A7A7E1A75386AFFF71FFA03467C
:1057A00087F83730FAE03B6A5B68002B00D1F5E000
:1057B0007B68FB613B6A9B68002B22D000233B6324
:1057C00018E0FB691A783B6A9B6899683B6B9B0001
:1057D0000B441B789A420AD13B6A1A68FB691B7812
:1057E00010461946FFF73CF8034687F837303B6B05
:1057F00001333B633B6A9B681B791A463B6B9A42B9
:10580000DFDC3B6ADB68002B22D00023FB6218E060
:10581000FB691A783B6ADB689968FB6A9B000B445A
:105820001B789A420AD13B6A1A68FB691B781046BA
:105830001946FFF715F8034687F83730FB6A01333E
:10584000FB623B6ADB681B791A46FB6A9A42DFDC23
:10585000A4E03B6A5B68002B00D19FE07B68FB61A2
:105860003B6A9B68002B22D00023BB6218E0FB69D7
:105870001A783B6A9B689968BB6A9B000B441B784B
:105880009A420AD13B6A1A68FB691B78104619468E
:10589000FEF7FEFF034687F83730BB6A0133BB6271
:1058A0003B6A9B681B791A46BB6A9A42DFDC3B6AFB
:1058B000DB68002B22D000237B6218E0FB691A789A
:1058C0003B6ADB6899687B6A9B000B441B789A42B1
:1058D0000AD13B6A1A68FB691B7810461946FEF725
:1058E000D7FF034687F837307B6A01337B623B6A18
:1058F000DB681B791A467B6A9A42DFDC4EE07B68E4
:10590000002B49D07B687B617B691B689B88FB749B
:105910007B691B681B7803F01F03012B00D03DE05F
:105920007B691B681B78212B02D0A12B1AD033E096
:105930007B691B7B002B15D03B6A5B68002B10D06A
:105940003B6A5B681B68002B0BD03B6A5B681B687B
:105950003A6A104604217A699847034687F8373037
:105960001AE019E03B6A5B7CFA7C9A4207D1386AFC
:105970007969FFF72DFC034687F837300BE03B6A67
:10598000DB7CFA7C9A4206D1386A7969FFF708FE17
:10599000034687F8373000BF00E000BF97F8373084
:1059A00018463837BD4680BD80B586B000AF034687
:1059B000B9607A60FB730123FB7507F11003184689
:1059C000FFF744F80346FB75FB7D002B01D0FB7D00
:1059D00023E03B69FA7B1046194600F051F9034673
:1059E000FB75FB7D002B01D0FB7D16E03B691B683E
:1059F000002B01D1032310E03B69BA685A603B6970
:105A000000221A743B69FF221A753B69FF229A74BF
:105A10003B691A467B681A60FB7D18461837BD46FD
:105A200080BD00BF80B584B000AF78600123FB73F8
:105A30007B68BB60BB68002B01D103230DE0B86815
:105A4000FFF7B4F90346FB73B868FFF7B7FA0346EC
:105A5000FB73B868FFF72AF8FB7B18461037BD4682
:105A600080BD00BF80B586B000AFF8607A603B6053
:105A70000B46FB720123FB75FB68002B01D103234E
:105A800019E0FB683B613B695B7D002B01D0022381
:105A900011E03B691A68FB7A104619467A683B6840
:105AA000FEF724FE0346FB75FB7D002B02D13B690C
:105AB00001225A75FB7D18461837BD4680BD00BFD0
:105AC00080B584B000AF03463960FB7101F098FEE9
:105AD0000023FB601CE02849FA6813469B0013442E
:105AE0009B000B441B68002B0FD02349FA68134618
:105AF0009B0013449B000B4410339B78FA799A4225
:105B000003D101F091FE012332E0FB680133FB6019
:105B1000FB68002BDFD00023FB6023E01649FA6806
